:1000000008308A00002800000C102010202BC62782
:100010002D22C4292010201000000A28591A462633
:10002000D217502CB421311A321C80010A10201032
:100030002010201020102010201031247A000A10E7
:1000400020102010201020102010A01830247A003A
:100050000A102010201020102010201031183024F9
:100060007A000A1020102010201020102010A01854
:100070004B247A000A10201020102010201020108D
:1000800031184B247A000A10201020102010201064
:10009000A01830184B247A000A10201020102010CD
:1000A00020102010A0184D247A00513084008313B2
:1000B0000008031968280630F800F701F70B5E28DE
:1000C000F80B5D287B30F700F70B6428800B5B286A
:1000D0000800580EF039F7000F3008057704880043
:1000E000000008140230F700F70B7428772800008E
:1000F000081008000808F700080E0F39F80008007B
:100100008316081088100811831288100F30831688
:100110000805F03888008312081500000814000054
:100120007A207808D800081000000814972898282A
:1001300000007A207808D70008100F3083160805D1
:1001400088008312580EF700F030F705770857043F
:10015000F8007808D700D71B8628551C881055183A
:1001600088140000081100000810560ED7000F3048
:10017000D7055708D800692056080F39D700D8008E
:10018000692008002830C8000C30C9000130CA00BE
:100190000630CB000810881008110F3083160805B0
:1001A00088000810881008110F308312D1005520E4
:1001B0000130C7004708033C031CE6280330D80081
:1001C00069200530D1005520C70ADA280230D8004E
:1001D00069200530D1005520C7014708033C031CA6
:1001E000FD2848304707840083130008CC00D50160
:1001F0004C08D6008020C70AED288A150A12362836
:100200000712201220088316870083128712A0127B
:1002100020088316870083120713201320088316F3
:10022000870083128713A013200883168700831288
:100230008A150A123928071320132008831687000D
:1002400083128712A01220088316870083120712D8
:100250002012200883168700831207162012200818
:100260008316870083120712201220088316870046
:1002700083120713201320088316870083120717A1
:1002800020132008831687008312071320132008E9
:100290008316870083128712A01220088316870016
:1002A00083128716A01220088316870083128712F4
:1002B000A01220088316870083128A150A123C2890
:1002C000520B632966294030D3006729D3010130DE
:1002D0005102D30753088038D400D5015408D60002
:1002E000802008005008073A031980290B3A0319A7
:1002F0008529063A03198D29023A03199329982969
:100300000130D100D20060219D29D5010130D600F5
:1003100080200230D10055209D290130D1000230CB
:10032000D20060219D29D5011030D60080209D2962
:100330000130D5005008D600802008000B08C70007
:100340008B13831603178C170C1400000000831204
:100350000313C71B8B1703170C087F390319F229E6
:100360000313C70003170D080313C80003170F0872
:100370000313C9004708D0007221480803178D00F5
:100380000313490803178F0003130B08CA008B13CC
:10039000831603178C170C1400000000831203133C
:1003A000CA1B8B1703170C0D0E0D7F390319F22989
:1003B0000313C70003170D080313C80003170F0822
:1003C0000313C9004708D0007221480803178D00A5
:1003D0000313490803178F008D0A03198F0A0313AB
:1003E0009E290317031308008318F9294F3084004E
:1003F00083134A084E068039D400CA1F0A2AC70947
:10040000C809C909CA09C70A0319C80A0319C90AC8
:100410000319CA0ACE1F172ACB09CC09CD09CE0968
:10042000CB0A0319CC0A0319CD0A0319CE0AF70126
:10043000F801F901FA01CF01D001D101D2014E0832
:100440004D044C044B040319552A2030D3000310EB
:10045000C70DC80DC90DCA0DCF0DD00DD10DD20DD0
:100460004E085202031D3E2A4D085102031D3E2A2A
:100470004C085002031D3E2A4B084F02031C4F2A12
:100480004B08CF024C08031C4C0FD0024D08031C34
:100490004D0FD1024E08031C4E0FD2020314F70D6C
:1004A000F80DF90DFA0DD30B272AD41F622AF7098C
:1004B000F809F909FA09F70A0319F80A0319F90AF8
:1004C0000319FA0A4F088000840A50088000840A41
:1004D00051088000840A5208800008001030CF00C4
:1004E000F701FA01CC0CCB0C031C7C2A4D08F70752
:1004F0000318FA0A4E08FA07FA0CF70CF90CF80C74
:10050000CF0B722A08002030DB00D701D801D901B7
:10051000DA015208FA005108F9005008F8004F08B3
:10052000F7000310771CA22A5308D70754080318B2
:10053000540FD80755080318550FD9075608031844
:10054000560FDA07DA0CD90CD80CD70CFA0CF90CC8
:10055000F80CF70CDB0B912A0800CF010408CE0041
:100560004F10831B4F14480EF038CA00CA07E23EF2
:10057000CB00323ECD0048080F39CB07CB07CD0763
:10058000E93ECC00CC07CC07470E0F39CC07CD078E
:10059000CC0DCD0DCD09CD0D47080F39CD07CA0DB6
:1005A0000730C9000A30CD07CC03031CD32ACC077F
:1005B000CB03031CD72ACB07CA03031CDB2ACA07B9
:1005C000C903031CDF2A49308400831307304E051A
:1005D0004E1384074D30040203194E170008F7002C
:1005E000031DFA2A4E1BFA2A4E1A0C2BCE19FA2A90
:1005F0002030FD2ACE154E123030F707C80104080E
:10060000C7004810831B48147708D00072214708A0
:100610008400831348188317840A4E1FEA2A0800AF
:10062000B630F700FA01F901F8014B10CA1F262B6A
:100630004B14C709C809C909CA09C70A031D262BD3
:10064000C80A031D262BC90A0319CA0A4708480409
:1006500049044A04031D2E2BF7013D2B0310F81B00
:100660003A2BC70DC80DC90DCA0DFA0DF90DF80DBD
:10067000F70B2E2BF8134B18F8178A150A12A4291A
:100680006E30D9001230D8000330D7009830D60031
:100690004F08DD004E08DC004D08DB004C08DA0096
:1006A000E1012430E0007430DF009230DE005A08AF
:1006B00003191C2CE6005E0803191C2CE602031C1F
:1006C000662B7F30E60703181C2C6C2B8130E6026A
:1006D000031C1C2C03191C2C6608F700F801F901F7
:1006E000FA01E5015B08E400E4175C08E3005D083B
:1006F000E2001930E6006108E20203188F2B013096
:10070000E30203188F2BE40203188F2BE502031872
:100710008F2BE50AE40AE30A6108E207C12B6008AF
:10072000E3020318AA2B0130E4020318AA2BE50206
:100730000318AA2BE50AE40A6008E3076108E20748
:10074000031CC12BE30A031DC12BE40A031DC12BAB
:10075000E50AC12B5F088038E4020318C02B013082
:10076000E5020318C02BE50A5F088038E40760083B
:10077000E307031C9E2BE40A031D9E2BE50A9E2B18
:100780007A14E60BC42BCF2B0310E20DE30DE40D1E
:10079000E50D0310FA0DF90DF80DE70D7B2B671C25
:1007A000D72B0310F80CF90CFA0CE70CDA2BF70333
:1007B00003191C2CE71B032C0310E20DE30DE40DC1
:1007C000E50D6108E2020318EF2B0130E302031884
:1007D000EF2BE4020318EF2BE502031C122C600838
:1007E000E3020318FA2B0130E4020318FA2BE502A6
:1007F000031C122C5F088038E4020318032C01301C
:10080000E502031C122CFA0A031D122CF90A031D1F
:10081000122CF80A031D122CF70A03191C2CF80CD1
:10082000F90CFA0C5B08E6005F08E606E61F1A2CD6
:10083000F817202CF813202CF701F801F901FA0120
:100840007A08CF007908CE007808CD007708CC0070
:100850004F08DD004E08DC004D08DB004C08DA00D4
:100860005908E1005808E0005708DF005608DE008C
:100870005A080319A82CE2005E080319A82CE20705
:100880000318492C7F30E202031CA82C0319A82C62
:100890004D2C8130E2070318A82C6208F700F801FC
:1008A000F901FA015B08E600E6175C08E5005D085F
:1008B000E4001830E200E301641C762C6108FA07BA
:1008C000031C682CF90A031D682CF80A0319E317A6
:1008D0006008F907031C6F2CF80A0319E3175F0877
:1008E000DC00DC175C08F8070318E317E30DF80CCD
:1008F000F90CFA0CE60CE50CE40C0310E20B5B2C93
:100900000130F7070318A82CF81B8D2CE60DFA0D03
:10091000F90DF80DF7030319A82CE61F9E2CFA0A0F
:10092000031D9E2CF90A031D9E2CF80A031D9E2C04
:10093000F80CF90CFA0CF70A0319A82C5B08E30071
:100940005F08E306E31FA62CF817AC2CF813AC2CB9
:10095000F701F801F901FA017A08CF007908CE0011
:100960007808CD007708CC004F08DD004E08DC0089
:100970004D08DB004C08DA005A08B63CDA00FA01F0
:100980005B08DE00DB170310DB0CDC0CDD0CFA0C63
:10099000F90CF80CF70CDA0BC32CDE1FDA2CF70974
:1009A000F809F909FA09F70A0319F80A0319F90A03
:1009B0000319FA0A7A08D5007908D4007808D30018
:1009C0007708D2005208D100D0015008073C031C20
:1009D0000D2D5108F7005008F8000319F32C0310EF
:1009E000F70CF80BEF2C77080139031DF92C87134E
:1009F000FA2C8717A0132008831687008312071785
:100A00002013200883168700831207132013200861
:100A1000831687008312D00AE52C5308D100D00139
:100A20005008073C031C382D5108F7005008F80007
:100A300003191E2D0310F70CF80B1A2D7708013936
:100A4000031D242D8713252D8717A0132008831637
:100A5000870083120717201320088316870083124C
:100A6000071320132008831687008312D00A102D45
:100A70005408D100D0015008073C031C632D5108D5
:100A8000F7005008F8000319492D0310F70CF80B74
:100A9000452D77080139031D4F2D8713502D8717DA
:100AA000A01320088316870083120717201320083D
:100AB00083168700831207132013200883168700EC
:100AC0008312D00A3B2D5508D100D0015008073CB5
:100AD000031C8E2D5108F7005008F8000319742DDF
:100AE0000310F70CF80B702D77080139031D7A2DD0
:100AF00087137B2D8717A013200883168700831286
:100B0000071720132008831687008312071320136A
:100B10002008831687008312D00A662D4B08D10067
:100B2000D0015008073C031CB92D5108F7005008AC
:100B3000F80003199F2D0310F70CF80B9B2D770875
:100B40000139031DA52D8713A62D8717A013200893
:100B50008316870083120717201320088316870047
:100B60008312071320132008831687008312D00AEC
:100B7000912D8716A01220088316870083128712F2
:100B8000A01220088316870083128A150A12B8293A
:100B9000B10DB20DB10DB20DFC30B105FF308316B1
:100BA0008600831206080339B10431080F39C700E3
:100BB000C8012130470784008313481883170008B1
:100BC000F700F801F901FA01F71FE92DF803F9031D
:100BD000FA037A08CC007908CB007808CA007708B5
:100BE000C900CE010408CD004E10831B4E143C08F2
:100BF000D2003B08D1003A08D0003908CF007A086B
:100C0000D6007908D5007808D4007708D30083226D
:100C10004D08840083134E1883177708BD077808A2
:100C20000318780FBE0779080318790FBF077A08F1
:100C300003187A0FC00733083D02031D2B2E34081A
:100C40003E02031D2B2E35083F02031D2B2E3608B6
:100C500040020319552EC01F312EC001BF01BE0135
:100C6000BD01C01B4C2E4008013C03184C2EFF3A1E
:100C7000031D452E3F08613C03184C2EFF3A031D0F
:100C8000452E3E08593C03184C2E0230C0006230FD
:100C9000BF005A30BE00BD014008B6003F08B50095
:100CA0003E08B4003D08B30037148A150A12172A0B
:1010000003081F398300FF30A000B201B101B6010F
:10101000B501B401B3013714B801BC01BB01BA0179
:101020000130B90083161F149F141F159F1107303C
:101030009C0083138312A101FF30A2000130A300A2
:10104000A401A501A601A701A801A901AA01AB015C
:10105000AC01AD01AE01AF01B001033083168600D3
:10106000013087008312A0008A11C2288A158A11D4
:1010700000298A158A111B298A15043003178D004F
:1010800000308F008A1103139E218A150D3003173B
:101090008D0000308F008A1103139E218A150C30B9
:1010A000C700FA30D1008A1155208A15C70B512884
:1010B000C0016A30BF00CF30BE00C030BD00371C59
:1010C000BA2983104008CA003F08C9003E08C8007A
:1010D0003D08C700CE010F30CD004230CC0040307B
:1010E000CB008A11F4218A157808C2007708C10064
:1010F00083104008CA003F08C9003E08C8003D08E8
:10110000C700CE01CD010330CC00E830CB008A11FE
:10111000F4218A157A08CA007908C9007808C8003D
:101120007708C7004208CC004108CB000330CE004E
:10113000E830CD008A116E228A157908FA00780805
:101140004702F7004808F8007908031C790FF802F5
:101150004908F9000030031C0130F9024A08FA007E
:101160000030031C0130FA027808C4007708C3007D
:10117000D201D1014208D0004108CF00D6010F3082
:10118000D5004230D4004030D3008A1183228A1522
:1011900077083D02C7003E08C8007808031C780F96
:1011A000C8023F08C9007908031C790FC90240082A
:1011B000CA007A08031C7A0FCA024408CC0043080C
:1011C000CB000330CE00E830CD008A116E228A15A4
:1011D0007908FA0078084702F7004808F80079080B
:1011E000031C790FF8024908F9000030031C013094
:1011F000F9024A08FA000030031C0130FA027808AC
:10120000C6007708C5000C30D0008A1172218A15FB
:10121000033084004208C8004108C7008A11AD228B
:101220008A152E30D0008A1172218A150A30840066
:101230004408C8004308C7008A11AD228A152E3021
:10124000D0008A1172218A150A3084004608C8002D
:101250004508C7008A11AD228A152030D0008A11B6
:1012600072218A154830D0008A1172218A157A308D
:10127000D0008A1172218A15B808031D4929163039
:1012800003178D0000308F008A1103139E218A15E9
:101290009A29380B55291F3003178D0000308F0015
:1012A0008A1103139E218A159A293808023C031DCE
:1012B0006329283003178D0000308F008A11031333
:1012C0009E218A159A293808033C031D7129313063
:1012D00003178D0000308F008A1103139E218A1599
:1012E0009A293808043C031D7F293A3003178D00E2
:1012F00000308F008A1103139E218A159A2938081D
:10130000053C031D8D29433003178D0000308F00ED
:101310008A1103139E218A159A293808063C031D59
:101320009A294C3003178D0000308F008A11031367
:101330009E218A154008CA003F08C9003E08C8001F
:101340003D08C7008A11102B8A157A08CA0079084F
:10135000C9007808C8007708C700CB014A08CF0049
:101360004908CE004808CD004708CC008A11402B20
:101370008A15371020142008831687008312071857
:10138000152A0A30D1008A1155208A152014200808
:10139000831687008312071CC629B80A3808073C41
:1013A0000319B801B808031DDA29BC01BB01BA0151
:1013B0000130B900380BE129BC01BB01BA010A3088
:1013C000B9003808023C031DEA29BC01BB01BA017F
:1013D0006430B9003808033C031DF429BC01BB018B
:1013E0000330BA00E830B9003808043C031DFE2978
:1013F000BC01BB012730BA001030B9003808053CE9
:10140000031D092ABC010130BB008630BA00A030A0
:10141000B9003808063C031D142ABC010F30BB007C
:101420004230BA004030B90037148A11C82D8A15ED
:041430005F286300CE
:02400E00721F1F
:00000001FF
;PIC16F877A
;CRC=D592  CREATED="07-mar-15 15:41"
